:020000040800F2
:1000000070080020010100081B2A0008492600088A
:10001000192A0008D90700087535000800000000FB
:100020000000000000000000000000008F2D00080C
:100030007F090008000000008D2D0008312F000806
:100040001B0100081B0100081B0100081B01000820
:100050001B0100081B0100081B0100081B01000810
:100060001B0100081B0100081B0100081B01000800
:100070001B0100081B0100081B01000849090008BA
:100080001B0100081B0100081B0100081B010008E0
:100090001B0100081B0100081B0100081B010008D0
:1000A0001B010008B12F00081B0100081B010008FC
:1000B000BD2F00081B0100081B0100081B010008E0
:1000C0001B0100081B0100081B0100081B010008A0
:1000D0001B010008213500081B0100081B01000856
:1000E000A50900081B0100081B010008DFF80CD05F
:1000F00000F0D6FA00480047F13E000870080020E2
:100100000648804706480047FEE7FEE7FEE7FEE7B1
:10011000FEE7FEE7FEE7FEE7FEE7FEE7AD2F00089D
:10012000ED000008202A04DB203A21FA02F0002129
:10013000704721FA02F3D040C2F1200291400843F7
:1001400019467047D2B201E000F8012B491EFBD2DC
:1001500070470022F6E710B513460A4604461946D2
:10016000FFF7F0FF204610BD2DE9FE4F804681EAE3
:100170000300C00F0C46009021F0004123F0004521
:10018000B8EB0200A94105D24046214690461C46E4
:100190000B46024623F00040104347D0270DC7F31B
:1001A0000A00C3F30A510290401A019040286BDA0A
:1001B000C3F3130040F4801B0098924620B1002343
:1001C000D2EB030A63EB0B0B01985946C0F14002D6
:1001D000504600F0EEF806460D4650465946019A44
:1001E00000F0F6F810EB08006141002487EA115294
:1001F00084EAE7731A4340D0009A62B3019A012A55
:100200004FEA075215DC001B61EB02014FF0004280
:1002100002EA0752CDE90042001C41F58011324646
:100220002B4600F0F6F803B0BDE8F08F40462146BB
:10023000F9E7001B61EB0201001C41F58013001877
:100240005B412018A2F5001747EB030140EAD57087
:10025000B6196D4111E06D084FEA360645EAC075E2
:100260004FEA0752001B61EB0201001C41F58011AF
:1002700049084FEA30000019514132462B4603B07D
:10028000BDE8F04F00F0B6B800980122400000230E
:10029000D0EB020263EBE073009821464FEAE07472
:1002A000B8EB000061EB0401E9E783F000435BE792
:1002B00081F0004158E770B5C1F30A5201F00045E2
:1002C0000024C1F3130140F2FF3341F480119A423C
:1002D00001DA002070BD40F233439A42A2F2334269
:1002E00003DC5242FFF71EFF00E090402C43F1D0A8
:1002F000404270BD30B5041E71F1000404DB4FF0C4
:100300000044404264EB0101141E73F1000405DB5C
:100310001C464FF00043524263EB0403994208BF6E
:10032000904230BD30B50B4601460020202201240A
:1003300009E021FA02F59D4205D303FA02F5491BB3
:1003400004FA02F52844151EA2F10102F1DC30BDC9
:100350002DE9F05F0546002092469B4688460646FA
:10036000814640241BE02846414647462246FFF787
:10037000D9FE53465A46C01A914110D31146184629
:10038000224600F016F82D1A67EB01084F46224668
:100390000120002100F00DF817EB00094E41201E4E
:1003A000A4F10104DFDC484631462A464346BDE855
:1003B000F09F202A04DB203A00FA02F10020704767
:1003C0009140C2F1200320FA03F319439040704793
:1003D000202A06DBCB17203A41FA02F043EAE07309
:1003E00006E041FA02F3D040C2F1200291400843F6
:1003F0001946704710B5141E73F1000408DA401C4A
:1004000041F1000192185B411A4301D120F0010033
:1004100010BD2DE9F04D92469B4611B1B1FA81F223
:1004200002E0B0FA80F220329046FFF7C2FF0446A5
:100430000F4640EA0A0041EA0B0153465A46084378
:1004400013D0114653EA010019D0C8F140025046BA
:10045000FFF768FE05460E46504659464246FFF7EE
:10046000A8FF084305D0012004E020463946BDE836
:10047000F08D0020054346EAE0762C4337430A9886
:100480006305E40AA0EB08000022FD0A44EA475491
:100490000A3002D500200146E9E70105101969413B
:1004A000DDE9084500196941BDE8F04DA2E72DE9F5
:1004B000FE4F81EA030404F0004421F0004100945F
:1004C0004FF0000B23F0004350EA01045ED052EAE3
:1004D00003045BD0C3F30A54C1F30A552C44A4F2BD
:1004E000F3340194A0FB0254C1F3130141F48011D1
:1004F000C3F3130343F4801301FB024400FB034ED8
:10050000840A970A44EA815447EA8357A4FB0768A0
:1005100002958D0A05FB07854FEA932C04FB0C54CA
:100520002705029D4FEA065847EA1637B5EB08053E
:100530006EEB070C870E920E47EA811742EA831290
:10054000A7FB0201B6EB0B0164EB00042B0D43EAA1
:100550000C335E1844EB1C50DA465146E7FB0201AF
:10056000C5F313044FEA0B3343EA14534FEA043242
:10057000019C43EA0603A4F10C040294009CCDE91B
:1005800000B4FFF746FF03B0BDE8F08F002001463E
:10059000F9E72DE9F04D81EA030404F0004B21F066
:1005A000004514464FF0000A23F0004150EA0502CE
:1005B00020D054EA01021DD0C5F30A570246C5F304
:1005C0001303C1F31300C1F30A5640F4801543F43A
:1005D0008013A7EB0608101BD64608F2FD3873EB14
:1005E000050002D308F1010801E092185B41B8F15F
:1005F000000F03DA00200146BDE8F08D00204FF423
:100600008011064684460EE0171B73EB050705D3E1
:10061000121B63EB050306434CEA010C49084FEA41
:10062000300092185B4150EA0107EDD152EA030015
:1006300012D082EA040083EA0501084305D0101BAA
:10064000AB4106D20122002306E000224FF0004316
:1006500002E06FF0010253101AEB06004CEB085158
:1006600010EB0A0041EB0B01BDE8F04DFFF7C2BEF5
:10067000C1F30A52C1F3130140F2FF3341F4801178
:100680009A4202DA00200146704740F233439A4210
:10069000A2F2334202DC5242FFF744BDFFF789BEAB
:1006A000064C074D06E0E06840F0010394E80700BF
:1006B00098471034AC42F6D3FFF71CFD905A00085F
:1006C000B05A000810B5064800F070FB64210448D9
:1006D00000F0CEFABDE81040014800F0F3B9000088
:1006E0002800002010B5064800F060FB6421044893
:1006F00000F0BEFABDE81040014800F0E3B9000088
:100700005800002070B5044600688168C943C907D5
:1007100017D1816821F00101816000F097FE054644
:100720000AE000BF00F092FE401B022804D92068B6
:100730008068C043C00706D020688068C043C007F7
:10074000F0D0002070BDA06A40F01000A062E06A06
:1007500040F00100E062012070BD0000F8B5002605
:100760000446009600688168C943C9072DD0816896
:1007700041F001018160164816490068B0FBF1F0B4
:1007800000E0401E00900028FBD100F05FFE05460F
:1007900016E000BF00F05AFE401B022810D9206866
:1007A0008068C043C0070BD0A06A40F01000A06270
:1007B000E06A40F00100E06284F824600120F8BDA6
:1007C00020688068C043C007E4D10020F8BD000065
:1007D0001400002040420F00FEE700007FB52020FB
:1007E000009000240120174D029001940394694663
:1007F000284600F031FD04E0641CE4B2012003F05F
:1008000051FB2021284600F017FE10B1642CF3D3D1
:100810000FE0642C0DD2002404E0641CE4B201203B
:1008200003F040FB2021284600F006FE20B1642C96
:1008300005D3012004B070BD642CEED3F9E700208D
:10084000F8E70000000C01402DE9F0410020184EAF
:1008500005464006070E002404E0641CE4B20120B3
:1008600003F020FB2021304600F0E6FD08B1642CA7
:10087000F3D3002404E0641CE4B2012003F012FB73
:100880002021304600F0D8FD08B9642CF3D328208D
:1008900003F008FB2021304600F0CEFD00B101201E
:1008A0006D1C3843EDB2082DD3D3BDE8F0810000B4
:1008B000000C01407CB5044600F026F8FFF78EFFDF
:1008C000F8B900254FEA0D06FFF7BEFF70556D1C05
:1008D000EDB2052DF8D39DF800509DF801309DF83C
:1008E00002209DF80310E818561806449DF80400ED
:1008F000864206D125706370A270E17020710020DD
:100900007CBD01207CBD00001FB52020009001208F
:100910000190029003200B4C03906946204600F0A2
:100920009BFC00222021204600F08BFD142003F0C8
:10093000ACFA04B020460122BDE81040202100F0AE
:1009400080BD0000000C0140014800F0FFBA00002B
:10095000A801002030B590F840500124AC40C56B90
:100960006C60046863604368102B036803D099606F
:100970000068C26030BD9A600068C16030BD7047D9
:10098000054806494FF47A720068B0FBF1F004495B
:1009900008605043486070471400002040420F0038
:1009A0001800002010B54FF4805000F049FC4FF4BF
:1009B000005000F045FCBDE810404FF4804000F0CE
:1009C0003FBC72B6FEE70000F8B50024009490F832
:1009D00024202546012A12D0012280F824204A68CA
:1009E0001F23072A0DD20668776B521E02EB820284
:1009F00093409F430B6893401F43776319E00220A5
:100A0000F8BD06680D2A0AD2376BD21F02EB8202AC
:100A100093409F430B6893401F43376309E0F76A95
:100A20000D3A02EB820293409F430B6893401F43B1
:100A3000F7620A68072306680A2A0AD3F7680A3A9F
:100A400002EB420293409F438B6893401F43F76041
:100A500008E0376902EB420293409F438B68934062
:100A60001F4337610A68102A01D0112A20D1124B86
:100A700002689A4217D193681B0219D4936843F411
:100A8000000393600968102912D10C490C4A0968C7
:100A9000B1FBF2F101EB8101490000E0491E009138
:100AA0000029FBD104E0816A41F020018162012428
:100AB00080F824502046F8BD002401401400002096
:100AC00040420F000068C06C704700002DE9F04103
:100AD0004FF0000704003D467ED0A06A002628B9EA
:100AE000E66284F82460204600F07EF82046FFF796
:100AF00009FEA16AC90600D420B1A06A40F0100026
:100B0000A06269E0A16A21F4885141F00201A1626A
:100B10006268E169237B0A4347EA43010A43A1680B
:100B20004FF48077B94209D0012907D05FF0000166
:100B300094F814C0BCF1010F02D00AE03946F7E77F
:100B4000F3B1A36A43F02003A362E36A43F0010315
:100B5000E3622368D3F804C02CF4694C4CEA010C1E
:100B6000C3F804C021688B68DFF870C003EA0C0387
:100B700013438B60A168B9420BD0012909D00CE066
:100B8000DFF85CC0A3690CEB43330B4343F4006113
:100B9000DFE7218A0D05A5F580152168CB6A23F4CE
:100BA00070032B43CB62216889680E4B1940914238
:100BB00008D1E662A16A21F0020141F00101A162BF
:100BC000BDE8F081A06A20F0020040F01000A062B1
:100BD000E06A40F00100E0620120F1E7FDF7E1FF8B
:100BE00000E0FFFFFE0E1FFF10B586B00021009150
:100BF0000191029103911A4C03681A4903221A4881
:100C0000A34211D18B6943F400738B618B6903F4A8
:100C1000007304938B6943F008038B61896901F0C9
:100C200008010491022113E0104CA34215D18B69F5
:100C300043F480638B618B6903F4806304938B6955
:100C400043F008038B61896901F0080104910121D7
:100C5000CDE90012694600F0FFFA06B010BD0000B1
:100C60000024014000100240000C01400028014017
:100C70002DE9F84300270D460446009700F0E6FBF7
:100C8000804620688168C90508D5A06A40F0200028
:100C9000A06284F824700120BDE8F8834168C9058A
:100CA00003D4C06A10F4700F2AD0022000F06CFC4C
:100CB0003B490968B1FBF0F62068036939490B42EA
:100CC0004FEA61014FEAA1121FD1C3684FEA611CCC
:100CD00013EA0C0F19D103690B4225D1C0681042E9
:100CE00022D1142023E0681C0AD02DB100F0AEFB05
:100CF000A0EB0800A84203D920680068800725D52A
:100D0000206800688007EED52DE003690B4202D110
:100D1000C168114206D0026923490A4206D1C0685F
:100D2000084203D1542002E0292000E0FC20464381
:100D3000009816E0681C11D02DB100F087FBA0EBE5
:100D40000800A8420AD90098B04207D2A06A40F031
:100D50000400A06284F8247003209DE70098401CE2
:100D60000090B042E6D321686FF012000860A06ADC
:100D700040F40070A06220688068C0F342400728F9
:100D80000CD1207B50B9A06A20F48070A062A06AC8
:100D9000C00403D4A06A40F00100A06200207BE7F9
:100DA00014000020244992244992240070B504467E
:100DB00090F8240001280DD0012084F8240020465A
:100DC000FFF7CCFC02004FF0000005D084F82400AF
:100DD000104670BD022070BDA16A40F20123994304
:100DE00041F48071A1621F4D23681F49AB4218D1A5
:100DF0000E6816F4702F14D0A66A46F48016A66208
:100E00000E68760505D5A66A26F4005646F4805687
:100E1000A662A66AF6040AD5E66A26F00606E66227
:100E200006E0A66A26F48016A6625E68E9E7E0623C
:100E300084F824006FF00200186020688368C3F310
:100E40004243072B05D1A84208D1096811F4702F3D
:100E500004D0816841F480118160B9E7816841F470
:100E6000A001F9E7002801400424014010B590F8E2
:100E700021100022022905D00421816380F820205E
:100E8000012010BD01680B6823F00E030B600168A0
:100E90000B6823F001030B6090F84030C46B012114
:100EA00001FA03F3636080F8211080F820201046D7
:100EB00010BD000010B590F821100024022903D0C5
:100EC0000421816301243DE001680A6822F00E02DA
:100ED0000A6001680A6822F001020A601A4A016881
:100EE000914201D1012121E0174A1432914201D1EE
:100EF00010211BE0144A2832914201D1891515E0D6
:100F0000114A3C32914201D189140FE00E4A50320D
:100F1000914202D14FF4803108E00B4A6432914291
:100F200002D14FF4801101E04FF08071064A083A77
:100F30005160012180F82110002180F82010416BC0
:100F400001B18847204610BD080002402DE9F05F3E
:100F5000C16B0C6801680B68D0F840C0042202FA2B
:100F60000CF2494DDFF824A1494E4A4FDFF828B171
:100F7000DFF828E122422CD05A072AD50A689206C7
:100F800003D40A6822F004020A600168A94201D170
:100F9000042219E0514501D1402215E0B14202D1AD
:100FA0004FF4806210E0B94202D14FF480420BE06E
:100FB000594502D14FF4802206E0714502D14FF429
:100FC000800201E04FF080622F4908394A60C16A0F
:100FD0003BE04FF0020808FA0CF818EA040F4FF053
:100FE00000094FF0010235D05FEA837832D50B68F3
:100FF0009B0605D40B6823F00A030B6080F82120C0
:101000000168A94201D1022219E0514501D12022F3
:1010100015E0B14202D14FF4007210E0B94202D1A2
:101020004FF400520BE0594502D14FF4003206E074
:10103000714502D14FF4001201E04FF000721249E5
:1010400008394A6080F82090816A00291AD0BDE8EA
:10105000F05F0847082505FA0CF5254212D01B075A
:1010600010D50B6823F00E030B6090F84010C36B93
:1010700002FA01F15960826380F8212080F8209003
:10108000016BE2E7BDE8F09F080002401C0002404F
:101090003000024044000240580002406C00024010
:1010A00030B528B308C8134914221944B1FBF2F132
:1010B0008900C16310498163022141771A6843F6B0
:1010C000F0718A43D0E900142143D0E902452C4352
:1010D0002143046921434469214384692143114325
:1010E000196000214163012242770177084630BD33
:1010F000012030BDF8FFFDBF0000024070B504467E
:1011000090F82000002501280CD0012084F8200050
:1011100094F821600020012E06D084F820000225DA
:10112000284670BD022070BD022684F82160A063AD
:101130002068066826F0010606602046FFF70AFCD4
:10114000E06A00282068016802D041F00E0106E044
:1011500021F0040101602068016841F00A0101608A
:101160002068016841F001010160D9E710B504462B
:101170000A2002F08AFE3149B4F5805F16D0B4F53A
:10118000005F22D0B4F5804F0FD1887800280CD0B2
:10119000C87890B3012843D0022848D0032804D14E
:1011A0004878002801D00A38487010BD8A7800209D
:1011B0003AB1CA78521C12F00302CA70F5D1887095
:1011C00010BD01228A70C87010BD88780028FBD03D
:1011D000C87841F2680250B101280FD0022813D01C
:1011E0000328F1D148786428EED20A30DCE78888F9
:1011F0009042E9D200F5FA7010E00AE0C888904207
:10120000E2D200F5FA7010E008782828DCD2401C01
:1012100011E088880028D7D0A0F5FA70888010BD2A
:10122000C8880028FBD0A0F5FA70C88010BD0878E7
:101230000028FBD0401E087010BD000000000020F8
:10124000044910B50A68024202D00860FFF78EFF19
:1012500010BD0000140401402DE9F84FDFF8B891EB
:101260000024A9F1040B23460F2709F1040AABF16E
:10127000040EC9E00125A5402A40AA427DD1674E4F
:10128000D1F804C0ACEB0608B44532D014DCBCF194
:10129000030F3AD009DCBCF1000F2AD0BCF1010FDA
:1012A0001CD0BCF1020F31D11DE0BCF1110F17D0E1
:1012B000BCF1120F2AD119E0B8F5881F19D006DC4D
:1012C000B8F5803F15D0B8F5801F1FD111E0B8F5F3
:1012D000001F0ED0B8F5041F18D10AE0CB6815E046
:1012E000CB681B1D12E0CB6808330FE0CB680C33D2
:1012F0000CE08B682BB1012B4FF0080303D0456144
:1013000004E0042302E0056100E00023FF2A01D885
:10131000064601E000F104064FEA840501D9A5F173
:101320002005D6F8008007FA05FC28EA0C0803FA25
:1013300005F548EA0508C6F800804D68ED0062D55D
:10134000374DAE6946F00106AE61AD6924F0030683
:1013500005F001050095334D06EB050CDCF808504F
:10136000A607360F07FA06F825EA0805DFF8B88061
:10137000404503D14FF0000817E044E0DFF8AC80AF
:10138000404502D14FF001080FE0DFF8A48040454E
:1013900002D14FF0020808E0DFF89880404502D102
:1013A0004FF0030801E04FF0040808FA06F848EA95
:1013B0000508CCF808804D68D9F80060ED024D466C
:1013C00001D5164300E096432E604D68DAF80060C0
:1013D000AD02554601D5164300E096432E604D6898
:1013E000DBF80060AD035D4601D5164300E096438F
:1013F0002E604D68DEF80060ED03754601D516439A
:1014000000E096432E60641C0D682A46E5407FF498
:1014100031AFBDE8F88F0000080401400000111052
:10142000001002400000014000080140000C014093
:1014300000100140001401408068084000D00120E5
:1014400070470AB1016170470904FBE701488068F1
:1014500070470000080000200248816802781144AB
:101460008160704708000020074810B5016841F00E
:1014700010010160032000F075F80F2000F006F85D
:1014800000F024F8002010BD0020024070B50D4D82
:1014900004464FF47A712878B1FBF0F00A490968E4
:1014A000B1FBF0F000F0A4FB48B9102C07D20022E9
:1014B0002146501E00F036F800206C6070BD0120FF
:1014C00070BD000008000020140000200C4808B582
:1014D000816941F001018161816901F0010100919F
:1014E000C16941F08051C161C06900F08050009035
:1014F0000448416821F0E06141F00071416008BD9D
:101500000010024000000140002809DB00F01F022B
:10151000012191404009800000F1E020C0F8001155
:1015200070470000F0B40E4B1B680C46C3F3022357
:10153000C3F10705042D00D90425191D072901D27F
:10154000002300E0DB1E012606FA05F1491E2140BA
:1015500099409E40761E16403143F0BC02F01CB804
:101560000CED00E0064900F0070208684FF6FF03A3
:10157000184040EA0220034A104308607047000008
:101580000CED00E00000FA0510B501460020234CE8
:10159000012922D0022939D010291DD16168226881
:1015A000D20119D51E48C1F38342C903805C0AD514
:1015B00061681B4AC1F34041921E515C194AB2FB5B
:1015C000F1F1484301E0184948436168490203D4F6
:1015D00040000321B0FBF1F010BD226AC2F30121EB
:1015E000012903D1920701D5C80310BD022905D1F5
:1015F000626A920702D549F6404010BD0329FCD12A
:1016000021688903F9D54FF2244010BD00F02AF972
:101610006168C1F38131491C4900DBE700100240D9
:101620008040000800127A0000093D002DE9F843CF
:1016300005460078354CC00754D0E0690026C0004C
:1016400008D4E06940F08050E061E069012600F0D4
:10165000805000902E480168C90512D40168804668
:1016600041F480710160FFF7F1FE074605E000BF1D
:10167000FFF7ECFEC01B642823D8D8F80000C00593
:10168000F6D5206A10F4407021D0A98801F4407189
:1016900081421CD0206A1F49012220F440700A6058
:1016A00000220A602062C00711D0FFF7CFFE074674
:1016B00041F2883808E000BFFFF7C8FEC11B414572
:1016C00002D90320BDE8F883206A8007F4D5206A98
:1016D000696820F44070084320621EB1E06920F080
:1016E0008050E0612878800705D56068A96820F4FB
:1016F0004040084360602878C00605D56068E96806
:1017000020F48000084360600020DBE70010024006
:1017100000700040400442422DE9F0470F460500AA
:1017200061D0434E306800F00700B84209D23068FB
:1017300020F0070038433060306800F00700B842FE
:1017400051D128683B4C810712D5400703D560680A
:1017500040F4E06060602878000703D5606840F4DA
:10176000605060606068A96820F0F0000843606025
:101770002878C00728D06868012810D0216802287E
:1017800010D0890700292EDA616821F00301014396
:101790006160FFF75BFE804641F288390DE0216809
:1017A0008903EFE78901EDE7FFF750FEA0EB0801A1
:1017B000494502D90320BDE8F0876068696800F0F8
:1017C0000C00B0EB810FEFD1306800F00700B84299
:1017D0000BD9306820F0070038433060306800F0E3
:1017E0000700B84201D00120E5E72878400705D579
:1017F0006068E96820F4E0600843606028780007CA
:1018000006D56068296920F4605040EAC100606034
:1018100000F038F86168084AC1F30311515CC84010
:101820000649086006480068FFF730FE0020C2E75E
:1018300000200240001002409040000814000020E8
:101840000C0000200448054900684968044AC1F3B7
:101850000221515CC8407047140000200010024073
:10186000A04000080448054900684968044AC1F3DB
:10187000C221515CC8407047140000200010024093
:10188000A04000080E4A51680E4801F00C03042BDA
:1018900011D0082B0FD10C48C1F38343C903C05C9E
:1018A0000AD55168084AC1F34041921E515C054A6D
:1018B0005043B0FBF1F070470449484370470000C3
:1018C0000010024000127A006E40000800093D003E
:1018D0002DE9F84F040070D02078C04DC00749D0E2
:1018E0006868C0F38100012807D06868C0F38100F0
:1018F000022809D16868C00306D52868800339D555
:1019000060680028E7D035E06068B0F5803F0BD014
:1019100010B1B0F5A02F11D0286820F480302860D5
:10192000286820F4802002E0286840F48030286095
:10193000606890B1FFF78AFD06460AE0286840F427
:1019400080202860F0E700BFFFF780FD801B64283F
:1019500073D828688003F7D50CE0FFF777FD0646BB
:1019600005E000BFFFF772FD801B6428F0D82868EF
:101970008003F7D420789A4E80074FF001094FF08A
:10198000000839D5686810F00C0F07D06868C0F3FC
:101990008100022809D16868C00306D4286880073E
:1019A00014D52069012808D110E02069B0B1C6F82B
:1019B0000090FFF74BFD074605E00AE1FFF746FD03
:1019C000C01B0228C4D828688007F7D52868616939
:1019D00020F0F80040EAC10028600DE0C6F8008061
:1019E000FFF734FD074604E0FFF730FDC01B022877
:1019F00023D828688007F7D4207800072CD57948A9
:101A0000A169D9B1C0F80090FFF720FD074604E0B6
:101A1000FFF71CFDC01B02280FD8686A8007F7D5A6
:101A200071484FF4FA510068B0FBF1F0009000BF2C
:101A30000098411E0091FAD20EE080E0C0F80080CC
:101A4000FFF704FD074604E0FFF700FDC01B022876
:101A500075D8686A8007F7D42078400760D5E869B0
:101A60000027C00008D4E86940F08050E861E869C8
:101A7000012700F0805000905C480168C90513D42C
:101A80000168834641F480710160FFF7DFFC824604
:101A900006E000BFFFF7DAFCA0EB0A0064284ED88E
:101AA000DBF80000C005F5D5E06801280AD008B1D0
:101AB000052813D0286A20F001002862286A20F047
:101AC000040002E0286A40F001002862E06841F268
:101AD000883B98B1FFF7BAFC82460BE0286A40F0D9
:101AE00004002862EEE700BFFFF7B0FCA0EB0A019C
:101AF00059455AD8286A8007F6D50CE0FFF7A6FCAE
:101B0000824605E0FFF7A2FCA0EB0A0159454CD83C
:101B1000286A8007F6D41FB1E86920F08050E86198
:101B2000E06988B36968C1F38101022944D00228C1
:101B3000C6F8608004D0FFF789FC044638E034E042
:101B4000FFF784FC074604E0FFF780FCC01B022877
:101B50002BD828688001F7D4206AB0F5803F05D1E2
:101B60006868A16820F4003008436860D4E908017F
:101B70000843696821F4741108436860C6F86090EE
:101B8000FFF764FC044606E025E000BFFFF75EFCBB
:101B9000001B022809D828688001F7D51BE000BF88
:101BA000FFF754FC001B022802D90320BDE8F88F80
:101BB00028688001F4D40EE00128F7D06868226A12
:101BC00000F48031914204D1616A00F470108842BF
:101BD00001D00120EAE70020E8E700000010024001
:101BE0000000424280044242140000200070004085
:101BF00010B5401EB0F1807F01D3012010BD4FF021
:101C0000E02460610F21601701F0C6FC0020A06194
:101C100007202061002010BD7047704770B590F814
:101C20003C20012A26D0012480F83C40022280F882
:101C30003D2003685A689D6822F070060A683243A6
:101C40005A600D4B02689A4208D0B2F1804F05D01D
:101C50000A4B9A4202D00A4B9A4204D1496825F0B5
:101C600080031943916080F83D40002180F83C10CA
:101C7000084670BD022070BD002C014000040040E9
:101C80000008004010B5040003D094F83D0010B1E6
:101C900007E0012010BD002084F83C00204600F041
:101CA0001FF8022084F83D00211D206801F08CF906
:101CB000012084F8460084F83E0084F83F0084F850
:101CC000400084F8410084F8420084F8430084F81E
:101CD000440084F8450084F83D00002010BD000059
:101CE00000B585B000210091019102910391204A35
:101CF0000168204891420ED1816941F400618161FF
:101D00008069002200F40060049003211920FFF78D
:101D100009FC192028E0B1F1804F27D1C16941F0B9
:101D20000101C161C16901F001010491816941F0C2
:101D3000040181618069694600F0040004904FF459
:101D4000004000900C48FFF787FA0C48416821F4E6
:101D5000407141F0E06141F4807141600022022154
:101D60001C20FFF7DFFB1C20FFF7CEFB05B000BDFA
:101D7000002C01400010024000080140000001401A
:101D800070B5044690F83C000025012817D00126C4
:101D900084F83C60022084F83D002068826822F0CC
:101DA000770222F47F4282600868502838D00DDC28
:101DB00020284FD005DC90B3102811D14AE0022032
:101DC00070BD302846D040280AD13BE060282FD093
:101DD00070280DD0B0F5805F03D0B0F5005F12D051
:101DE000012584F83D60002084F83C00284670BD41
:101DF000CB68D1E90121206801F022F920688168CF
:101E000041F0770109E0CB68D1E90121206801F0B8
:101E100017F92068816841F480418160E1E719E0A9
:101E2000CA684968206801F01DF95021206806E061
:101E3000CA684968206801F053F96021206801F000
:101E400009F9CEE7CA684968206801F00BF940211A
:101E50002068F4E7226801461046F0E770472DE954
:101E6000F041054690F83C0000260C46012810D0B1
:101E7000012085F83C0072B1042A1CD0082A2CD01D
:101E80000C2A50D00126002085F83C003046BDE8E1
:101E9000F0810220FBE7D4E90012E368286801F032
:101EA000F3F82868816921F00C0181612868816953
:101EB000A26811430FE0D4E90012E368286801F03A
:101EC00021F92868816921F440618161286881696C
:101ED000A26841EA02218161D5E72868D4E9002C93
:101EE000277B036A016A21F480710162C16923F4CE
:101EF000007321F0030141EA0C0121F0F00C3907D5
:101F00004FF400774CEA116107EA02221A43C161DB
:101F100002622868C16921F00C01C1612868C169A9
:101F2000A26811432BE02868D4E90021E768036A1E
:101F3000D0F820C02CF4805CC0F820C0D0F81CC0C1
:101F400023F400532CF4407C4CEA012121F4704C22
:101F50004FF6FF7101EA07314FF4005741EA0C01D7
:101F600007EA02321A43C16102622868C16921F49A
:101F70004061C1612868C169A26841EA0221C1616A
:101F800081E710B5040003D094F83D0010B107E0DC
:101F9000012010BD002084F83C00204600F01EF80F
:101FA000022084F83D00211D206801F00DF8012079
:101FB00084F8460084F83E0084F83F0084F840002E
:101FC00084F8410084F8420084F8430084F8440017
:101FD00084F8450084F83D00002010BD70472DE9CD
:101FE000F04104460068C66805694FF00007A9077C
:101FF00013D5B10711D5F91E0161012020772068A2
:1020000080698007204602D0FFF728FF04E000F037
:102010007EF8204600F07CF82777680716D5700711
:1020200014D521686FF00400086102202077206831
:10203000806910F4407F204602D0FFF70FFF04E0D4
:1020400000F065F8204600F063F82777280715D5DB
:10205000300713D521686FF008000861042020774D
:102060002068C0698007204602D0FFF7F7FE04E031
:1020700000F04DF8204600F04BF82777E80616D51B
:10208000F00614D521686FF0100008610820207751
:102090002068C06910F4407F204602D0FFF7DEFEC2
:1020A00004E000F034F8204600F032F82777E80723
:1020B00008D0F00706D021686FF0010008612046C3
:1020C00000F027F8280608D5300606D521686FF0FD
:1020D000800008612046FFF79FFD680608D570065E
:1020E00006D521686FF040000861204600F012F824
:1020F000A8060AD5B00608D521686FF0200008614F
:102100002046BDE8F041FFF788BDBDE8F08170478B
:10211000704770477047704710B5044600684069C3
:1021200094F84110C0F3C010212911D180B120686A
:10213000143050E8001F21F0800140E80012002A0E
:10214000F5D1A06B08B1FEF791FE204601F09BF897
:102150002068406994F84210C0F38010222911D100
:1021600080B12068143050E8001F21F0400140E8A1
:102170000012002AF5D1E06B08B1FEF777FE204689
:1021800001F05AF8002010BD70470000F8B5016852
:1021900004460868CA684B6910F00F0F4FF000053D
:1021A00059D003F0010602F49077374365D0C10798
:1021B00005D0D10503D5616C41F00101616441078F
:1021C00005D5D90703D0616C41F002016164810734
:1021D00005D5D90703D0616C41F0040161640107A2
:1021E00007D502F02001314303D0616C41F00801B2
:1021F0006164616C00293AD0800604D5900602D54E
:10220000204601F04EF820684069616CC0F38010F0
:10221000090700D460B3204601F00EF82068406939
:10222000400621D52068143050E8001F21F04001FD
:1022300040E80012002AF5D1E06BA8B16D49416376
:10224000E06BFEF737FE002811D0E06B416B01B068
:10225000BDE8F040084783060FD593060DD520460C
:10226000BDE8F84001F01DB82046FFF78DFFF8BD2E
:102270002046FFF789FF6564F8BD266B2023012EF9
:102280007CD1C6067AD5D60678D50868486800900D
:1022900048694FF00206400640D5E16B0868406887
:1022A0000004000CE8D0A28D8242E5D9E08588695F
:1022B00020282DD020680C3050E8001F21F48071B8
:1022C00040E80012002AF5D12068143050E8001FC1
:1022D00021F0010140E80012002AF5D120681430F5
:1022E00050E8001F21F0400140E80012002AF5D11B
:1022F00084F84230256320680C3050E8001F21F03C
:10230000100140E80012002AF5D1E06BFEF7AEFDA7
:102310006663A08DE18D401A81B22AE0A08DE18D27
:10232000401A81B2E08D0028A6D00029A4D02268EE
:102330000C3252E8000F20F4907042E80007002FA2
:10234000F5D12068143050E8002F22F0010240E857
:102350000027002FF5D184F84230256320680C3027
:1023600050E8002F22F0100240E80023002BF5D1A6
:1023700066632046FFF7CFFEF8BDFFE705062BD5C5
:10238000150629D594F841002128F5D1A068B0F5AB
:10239000805F01D12069B0B1206A411C21622168AF
:1023A00000784860E08C401E0004000CE084E3D11B
:1023B0002068C16821F08001C1602068C16841F0D7
:1023C0004001C160D8E7206A0088C0F30800486077
:1023D000206A801C2062E5E74006CDD55006CBD5AB
:1023E000CA68204622F04002CA6084F8413000F0FA
:1023F0002AF9C1E73B31000870B5040004D094F815
:102400004100002510B106E0012070BD84F8405065
:10241000204600F023F8242084F841002068C16899
:1024200021F40051C160204600F09CFF2068016942
:1024300021F4904101612068416921F02A01416144
:102440002068C16841F40051C1606564202084F8AF
:10245000410084F842006563002070BDF0B585B08E
:1024600000250095019502950395064603683548B9
:10247000334C022103220715A3423CD1836943F464
:1024800080438361836903F480430493836943F049
:102490000403836180692C4C00F00400049008025E
:1024A000CDE90001039269462046FEF7D5FECDE94D
:1024B0000075694620460295FEF7CEFE244C23485F
:1024C000C4E900058020C4E9025025616561A56169
:1024D0002046E561FEF7E4FD08B1FEF772FAF46309
:1024E0000022012125206662FFF71CF82520FFF756
:1024F0000BF805B0F0BD174CA342FAD1C36943F401
:102500008023C361C36903F480230493836943F088
:10251000080383618069CDE9007100F00800CDE90E
:1025200003200D4C69462046FEF796FEE014CDE9E7
:102530000005694620460295FEF78EFED9E70000A9
:1025400000380140001002400008014058000240DD
:10255000A801002000480040000C014090F84230E3
:10256000202B01D00220704721B11AB10023036350
:1025700000F054BF01207047074988420BD107483B
:102580007F210180064A0088002111547F220449DE
:102590000148FFF7E3BF704718010020200000202A
:1025A000EC03002070472DE9F843044690F8410001
:1025B000984616460D46202802D00220BDE8F88332
:1025C00085B17EB100206064212084F84100FEF7CF
:1025D0003DFFA6848146E684A0682027B0F5805F91
:1025E00002D003E00120E9E7206910B12E46002562
:1025F0000EE000260CE08021204600F057FFA8B92D
:10260000C6B116F8010B21684860E08C401EE084DA
:10261000E08C4B464FF00002CDF800800028EAD154
:102620004FF04001204600F041FF40B184F8417076
:102630000320C3E735F8020BC0F30800E3E784F892
:1026400041700020BAE77047FEE7000070B5012234
:102650000E4D940321462846FEF7F3FE0122560351
:1026600031462846FEF7EDFE00F048F800222146EC
:102670002846FEF7E6FE00F041F8002231462846E3
:10268000FEF7DFFEBDE8704000F038B800100140F2
:1026900070B50B4D4FF48044002221462846FEF7CA
:1026A000D0FE012251032846FEF7CBFE00F026F8AB
:1026B00021462846BDE870400122FEF7C2BE000058
:1026C0000010014070B50C4C012291032046FEF72A
:1026D000B8FE00F013F80122550329462046FEF704
:1026E000B0FE00F00BF8002229462046FEF7A9FEB6
:1026F000BDE8704000F002B8001001400320401E09
:10270000C0B2FCD2704700003EB5002411480094CE
:10271000019402940E4984600160047304750125DC
:1027200005614FF460214460C161FEF7CFF908B143
:10273000FEF747F90920CDE90005694602940548EE
:10274000FEF742F9002801D0FEF73BF93EBD00003C
:1027500000240140280000203EB5002411480094C8
:10276000019402940E49846001600473047501258C
:1027700005614FF460214460C161FEF7A7F908B11B
:10278000FEF71FF90820CDE90005694602940548C7
:10279000FEF71AF9002801D0FEF713F93EBD00003C
:1027A0000028014058000020094808B5416941F05F
:1027B000010141614069002200F0010000901146D2
:1027C0000F20FEF7AFFEBDE808400F20FEF79CBECD
:1027D00000100240F0B585B00020009001900290FA
:1027E00003902B48816941F010018161816901F0FA
:1027F00010010491816941F020018161816901F03A
:1028000020010491816941F008018161816901F031
:1028100008010491816941F00401816180691D4EC4
:1028200000F004004FF4C0440490012221463046D9
:10283000FEF707FE184F012220213846FEF701FE61
:10284000009401240325694630460194CDE90245F0
:10285000FEF702FD4FF4E04000901048CDE901047E
:1028600069463846FEF7F8FC2020CDE900046946A9
:102870003846CDE90245FEF7EFFC0022114628203C
:10288000FEF750FE2820FEF73FFE05B0F0BD000029
:102890000010024000100140000C01400000211017
:1028A00010B586B000241848009401940294039453
:1028B00004941449059401604721C0E9011440F2D1
:1028C000E731C0E903148021C0E90541FFF7DAF9D7
:1028D00008B1FEF776F84FF48050009069460A4838
:1028E000FFF74EFA08B1FEF76CF8049404A9064805
:1028F0000594FFF793F9002801D0FEF762F806B0BF
:1029000010BD0000002C01408800002010B58AB0E6
:10291000002422480494059406940794089409948A
:102920000094019402944FF0804103940160472188
:10293000C0E901144FF6FF71C0E9031480218161E1
:10294000FFF7A0F908B1FEF73CF84FF4805004906F
:1029500004A91248FFF714FA08B1FEF732F80F483D
:10296000FFF70FFB08B1FEF72CF8089408A90B48F5
:102970000994FFF753F908B1FEF723F80120CDE9D8
:10298000004002940022694604480394FFF767FA66
:10299000002801D0FEF715F80AB010BDD0000020C5
:1029A00010B50E4C0C480C2120604FF4E1306060F3
:1029B0000020A060E060C4E90401A061E06120465D
:1029C000FFF71AFD08B1FDF7FCFF2068C16841F070
:1029D0001001C16010BD0000003801401801002046
:1029E0000C4810B50A4901604FF4E1314160002103
:1029F00081600C22C160C0E904128161C161FFF7EE
:102A0000FBFC002803D0BDE81040FDF7DABF10BD85
:102A10000048004060010020FEE7FEE730B40021DE
:102A2000084B0A465FF0000003EB8004401CC0B274
:102A300062548028F8D3491CC9B20429F2D330BCAF
:102A400000F08EB8EC01002030B5CC0801F007038F
:102A500001259D40EBB2064D05EB8005C808285CBA
:102A60000AB1184302E063EA0000C043285530BDB4
:102A7000EC01002010B50021AE2000F06CF900211F
:102A8000084600F068F90021102000F064F90021E8
:102A9000402000F060F90021812000F05CF9002165
:102AA000CF2000F058F90021A12000F054F90021B6
:102AB000C82000F050F90021A62000F04CF90021B8
:102AC000A82000F048F900211F2000F044F900215F
:102AD000D32000F040F90021084600F03CF9002125
:102AE000D52000F038F90021802000F034F90021D1
:102AF000D92000F030F90021F12000F02CF900215C
:102B0000DA2000F028F90021022000F024F9002149
:102B1000DB2000F020F90021302000F01CF900211A
:102B2000202000F018F90021022000F014F9002103
:102B30008D2000F010F90021142000F00CF9FFF7AF
:102B40006DFF0021BDE81040AF2000F004B902463F
:102B5000012000E05043491EC9B2FBD2704700007B
:102B600070B5184E002400BF04F1B000C0B20021BF
:102B700000F0F1F80021084600F0EDF800211020E7
:102B800000F0E9F8FFF762FD782000F001F9FFF7A7
:102B900099FD402000F0FCF8FFF794FD5FF0000580
:102BA00006EB8500005D00F0F3F8FFF78BFD6D1C70
:102BB000EDB2802DF4D3FFF76BFD641CE4B2042C5E
:102BC000D2D370BDEC0100202DE9FC4F1C460E460F
:102BD00082468B460190082B0DD0600700D0012063
:102BE00000EBD40061084843C0B28146203AD0B21D
:102BF000009000204BE00620F7E7082C13D00C2CA7
:102C000018D0102C1BD0182C44D10098234900EB6D
:102C1000C00000BF01EB8001002711F80850E80751
:102C200012D00B9A13E000981D4900EB400001EB15
:102C30004001F1E700981B4900EB4000EAE71A4920
:102C4000009801EB0011E7E70B9828B3002231460A
:102C50005046FFF7F9FE761C7F1C6D08FFB2F6B2F6
:102C6000082FDCD30AF1010000F0FF0A082C0AD07B
:102C70000199AAEB0100B0EB540F04D10BF108004D
:102C80008A4600F0FF0B08F101005E46C0B28046A4
:102C90004845B2D3BDE8FC8F0122D8E7344D000887
:102CA000A8400008D0420008444700082DE9F84F2A
:102CB0000025DDE90A691F4692468B468046082EAC
:102CC00000D1022500241CE0381B401EC1B20A209E
:102CD000FFF73DFFBAFBF0F00A21B0FBF1F201FB78
:102CE0001200CDF8009080B13030C2B205EB560131
:102CF00001FB0480C0B233465946FFF765FF641CF0
:102D0000E4B2BC42E0D3BDE8F88F05EB560101FB0D
:102D10000480C0B233463022EEE72DE9F8411E466A
:102D2000154688460446079F0BE033464146204639
:102D30000097FFF749FF082E0AD004EB5600C4B2F3
:102D40006D1C2A78A2F120005E28EED9BDE8F8813A
:102D5000A41DE4B2F4E770B50C460546FFF776FC17
:102D6000782000F015F8FFF7ADFC0CB1402000E032
:102D7000002000F00DF8FFF7A5FC284600F008F849
:102D8000FFF7A0FCBDE87040FFF782BC70477047BA
:102D90002DE9F041124F002405464FF480487E147F
:102DA000280601D5012200E0002241463846FEF700
:102DB00048FBFFF7A3FC012231463846FEF741FBF2
:102DC000FFF79CFC002231463846FEF73AFB6806C6
:102DD000641C050EE4B2082CE2D3BDE8F0810000CB
:102DE000001001407CB508260124434D5EE000BF81
:102DF000FFF714FE0021082340A208460094FFF7C5
:102E00008CFF082340A2194600200094FFF785FF9D
:102E1000CDE900640423AA8808212820FFF746FF93
:102E200008233BA2102100200094FFF776FFCDE994
:102E300000640423EA8810212820FFF737FF0823C5
:102E400035A2182100200094FFF767FFCDE9006448
:102E500002232A7818212820FFF728FF082343227D
:102E6000182137200094FFF7AFFEE87830B1012831
:102E700009D002281ED003280CD120E008233E22CE
:102E80001946009403E008233E22102100943C20C0
:102E9000FFF79AFE082322A2182150200094FFF782
:102EA0003CFFFFF75DFE642000F0EFFFA8780028EC
:102EB0009ED17CBD08233E2218210094E7E7082319
:102EC00019A2182100200094FFF727FFCDE9006424
:102ED00003236A7818212820FFF7E8FE082325221B
:102EE00018213A200094FFF76FFE08233E22182194
:102EF00041200094CCE7000000000020536574746A
:102F0000696E6773000000004C696768743A2000BE
:102F10004D51323A2020200054656D703A20200037
:102F2000455849540000000048756D3A20202000A3
:102F3000FEF792BA30B593B028216846FDF709F93B
:102F400014210AA8FDF705F9002501200F95109519
:102F50001195010412958DE8230004904FF4E010C0
:102F6000CDE90810022407946846FEF7B1FC08B1C9
:102F700072B6FEE70AA90F2081E831004FF48060A5
:102F8000CDE90D0502210AA8FEF7C6FB08B172B60D
:102F9000FEE74FF4004011900F940FA8FEF746FB98
:102FA000002801D072B6FEE713B030BD70470000B4
:102FB0000148FFF714B80000880000200148FFF71F
:102FC0000EB80000D0000020F0B50268194B1A4C72
:102FD0001A4D4FF08047984205D0B84203D0A04226
:102FE00001D0A84203D122F070064A6832439842C9
:102FF00005D0B84203D0A04201D0A84203D122F4A8
:103000004074CA6822434C6922F080022243026065
:103010008A68C2620A688262984201D109690163C2
:10302000012141610169C90703D0016921F0010152
:103030000161F0BD002C0140000400400008004088
:1030400010B5846842EA032224F47F440A432243F1
:10305000826010BD826822F070020A4342F00701CC
:103060008160704710B5036A046A24F001040462A9
:10307000846924F0F00444EA021423F00A020A43AB
:103080008461026210BD000070B5056A046A24F014
:103090000104046284690F4EB04208D0B0F1804F41
:1030A00005D00D4EB04202D00C4EB04203D124F0F8
:1030B0000304144301E044F001041A0724F0F0046F
:1030C00044EA126225F00A0301F00A011943826101
:1030D000016270BD002C0140000400400008004067
:1030E00010B5036A046A24F010040462846923F0B2
:1030F000A00324F4704444EA023243EA01118261DD
:10310000016210BD30B5046A056A25F0100505623C
:10311000856925F4407545EA022222F470454FF690
:10312000FF7202EA033224F0A0032A43A02404EA37
:10313000011119438261016230BD10B5406A00215E
:10314000C185C184FFF720F810BD70B5446A2068BE
:10315000406994F84110C0F3C0100025212904D122
:1031600018B1E584204600F08EF82068406994F894
:103170004210C0F38010222904D118B1E585204601
:1031800000F05AF8606C40F0100060642046FEF7D2
:10319000FBFF70BD10B50146406A096809684FF031
:1031A000000289062ED4C28501680C3151E8003F27
:1031B00023F4807341E80034002CF5D10168143108
:1031C00051E8003F23F0010341E80034002CF5D121
:1031D0000168143151E8003F23F0400341E8003416
:1031E000002CF5D1202180F84210016B012909D172
:1031F00001680C3151E8003F23F0100341E800342E
:10320000002CF5D14263016B012902D0FFF7B4F91C
:1032100010BD818DFEF77FFF10BD10B5406A012102
:103220004163016B012902D0FFF7BCF910BD818D0C
:103230004908FEF770FF10BD01680C3151E8002FFE
:1032400022F4907241E80023002BF5D1016814317B
:1032500051E8002F22F0010241E80023002BF5D1B4
:10326000016B012909D101680C3151E8002F22F0CE
:10327000100241E80023002BF5D1202180F84210F4
:1032800000210163704701680C3151E8002F22F0E2
:10329000C00241E80023002BF5D1202180F8411025
:1032A000704708B590F84210222901D0022008BDCD
:1032B00082684FF480539A4201D1016921B1816A39
:1032C0009A421BD04AB10AE00268816A5268C2F38E
:1032D00008020A80816A891C08E0026972B10268EA
:1032E000526802F07F020A70816A491C8162C18DB6
:1032F000491E0904090CC18503D01BE0026852680D
:10330000F1E70168CA6822F02002CA600168CA6851
:1033100022F48072CA6001684A6922F001024A619F
:10332000202180F8421000214163026B012A03D062
:10333000FFF722F9002008BD016301680C3151E854
:10334000002F22F0100241E80023002BF5D1016884
:103350000A68D20602D50A6849680091818DFEF795
:10336000DAFEE7E770B5044600680169E26821F417
:103370004051114301612169A06808436169084314
:103380002168CA6841F20C639A430243CA6020680C
:103390004169A26921F44071114341611E492068CD
:1033A000884202D1FEF75EFA01E0FEF74BFA00EB2D
:1033B000C00101EB0012606864218000B2FBF0F3F1
:1033C000B3FBF1F36FF018067343B2FBF0F5B2FBF9
:1033D000F0F605EB8305322303EB0515B5FBF1F59C
:1033E000B6FBF1F605F0F00505EB0615B2FBF0F6BD
:1033F000B2FBF0F0B0FBF1F06FF01802504306EBB7
:10340000800003EB0010B0FBF1F0216800F00F002A
:103410002844886070BD00000038014038B58162E2
:1034200004468285002013466064222284F84220EC
:10343000E56B1B4AAA62E56B1A4AEA62E56B1A4A17
:103440002A63E26B50630A462168E06B091DFDF7B1
:1034500055FE2068016840680090206948B12068E6
:103460000C3050E8001F41F4807140E80012002A3F
:10347000F5D12068143050E8001F41F0010140E808
:103480000012002AF5D12068143050E8001F41F0E6
:10349000400140E80012002AF5D1002038BD0000AC
:1034A000953100081B3200084B3100082DE9F84324
:1034B000984617460D460446089E24E0701C22D00C
:1034C000FDF7C4FFA0EB0800B0421AD8CEB12068C7
:1034D000C168490717D5802D15D0402D13D001683C
:1034E000C94309070FD401680025406800902046B1
:1034F000FFF7A2FE0820606484F840500120BDE878
:10350000F8830320FBE72068006835EA000004D058
:103510000020B842D2D00020F1E70120F9E70000F6
:1035200038B5114C20680168C90617D50168002517
:10353000406800902046FEF7EFFDE06B00684068B1
:10354000C0F17F0080B27F2800D97F200749088022
:1035500007490D547F220448FFF700F8BDE83840C2
:103560000148FEF713BE00001801002020000020D3
:10357000EC030020FEE700000FB4054B10B503A9D3
:10358000044A029800F0EAF810BC5DF814FB000051
:10359000D93E0008240000200907090E002804DB9A
:1035A00000F1E02080F80014704700F00F0000F1F7
:1035B000E02080F8141D704702E008C8121F08C1FF
:1035C000002AFAD170477047002001E001C1121FA4
:1035D000002AFBD1704700002DE9FF5F82B0002177
:1035E000DDE90430020DDDF840B0034318D044F6A5
:1035F0001050A2F2FF3242431514119801281FD037
:10360000A5EB0B00401C5FEA000A4FF000064E4F8E
:10361000DFF83891B046504615D5CAF1000413E0E2
:10362000119801244AA3012801D16FEA0B010298E5
:10363000119AC0E90031C0E9024206B0BDE8F09F2E
:10364000CBF10000DFE704460021404A491842EB75
:103650000450CDE9001012E0E00707D032463B46A7
:1036600040464946FCF723FF8046894632463B46A2
:1036700010461946FCF71BFF06460F466410002C47
:10368000EAD1DDE90401DDE90023BAF1000F06DA31
:10369000FCF70DFF42464B46FCF709FF05E0FCF73F
:1036A00078FF42464B46FCF774FF04460E46002264
:1036B000284BFCF71FFE03D84FF0FF30014607E010
:1036C0000022254B20463146FCF74EFDFCF7D0FF8B
:1036D000102409E0002C0ADB0A220023FCF738FE44
:1036E000039B30321A55641E50EA0102F2D1641C69
:1036F000039AC4F111031444119A012A03D0012240
:1037000008430DD10AE0084304D000204FF0110B0C
:10371000119072E7A3EB0B056D1E0DE05B4504DD18
:103720004FF0000205F1010504E003DA4FF000025A
:10373000A5F10105002AECD002981199C0E90231E7
:10374000C0E9004579E70000000014400000F03FA8
:10375000300000000000F0430000E03F2DE9FF4F83
:1037600095B09B468946064600250FE2252877D16D
:1037700000242746F84A0121059400E0044316F886
:10378000013F203B01FA03F01042F7D130782A289C
:1037900011D06FF02F033078A0F13002092A16D82B
:1037A000059A44F0020402EB820203EB4202104449
:1037B000761C0590EFE759F8042B0592002A03DAEE
:1037C000504244F40054059044F00204761C3078D2
:1037D0002E2816D116F8010F44F004042A280DD023
:1037E0006FF02F023078A0F13003092B09D807EBD6
:1037F000870302EB4303C718761CF3E759F8047BF1
:10380000761C30786C280FD006DC4C2817D068283E
:103810000DD06A2814D104E0742810D07A280FD172
:103820000DE044F400140AE044F4801401E044F490
:1038300040147278824202D104F58014761C761C02
:10384000307866280BD013DC582877D009DC0028A4
:1038500075D04528F6D04628F4D047281AD19DE1E6
:1038600018E0632835D0642879D0652812D195E115
:10387000702873D008DC6728F1D069286FD06E28D3
:103880000DD06F2806D1B5E073282CD0752875D0DF
:10389000782874D05A46179990476D1C75E1C4F387
:1038A0000250022809D003280DD0D9F800100428AE
:1038B0000DD00D6009F1040967E1D9F80010EA178D
:1038C000C1E90052F6E7D9F800100D80F2E70D705B
:1038D000F0E719F8041B8DF8001000208DF80100A6
:1038E000EA46012003E059F804AB4FF0FF306107CE
:1038F0004FF0000102D40DE008F101018846B94201
:103900000FDA8045F8DB1AF808100029F4D108E036
:1039100008F1010188468142FADB1AF808100029F3
:10392000F6D105985B46A0EB080721463846179A62
:1039300000F094FA284400EB080507E04DE029E187
:103940000DE01AF8010B5A4617999047B8F1010893
:10395000F7D25B4621463846179A13E142E00A2225
:103960000092C4F302524FF0000A022A08D059F81C
:1039700004CB032A4FEAEC710AD00DE029E02AE0DB
:1039800009F1070121F00702F2E802C1914609E0BE
:103990000FFA8CFC4FEAEC71042A03D14FFA8CFC2D
:1039A0004FEAEC71002907DA0A460021DCF1000C2D
:1039B00061EB02012D2202E0220504D52B228DF8B5
:1039C0000420012203E0E20701D02022F7E790461D
:1039D00059E00A2102E010220DE010214FF0000A08
:1039E00000910BE010224FF0000A44F00404082775
:1039F000009203E008224FF0000A0092C4F3025242
:103A0000022A05D059F804CB0021032A08D009E086
:103A100009F1070121F00702F2E802C1914605E031
:103A20001FFA8CFC042A01D10CF0FF0C4FF00008A7
:103A3000220728D5702806D0009B83F0100353EA94
:103A40000A0305D00EE040228DF80420012208E090
:103A50005CEA010206D030228DF804208DF80500C2
:103A600002229046009B83F0080353EA0A030AD11E
:103A70005CEA010201D1620705D530228DF80420ED
:103A80004FF001087F1E582804D034A003900EA8E0
:103A900002900DE036A0F9E753466046009AFCF725
:103AA00057FC84460398825C0298401E0290027084
:103AB0005CEA0100F0D1029806A9081A00F1200A78
:103AC000600702D524F4803400E00127574502DD69
:103AD000A7EB0A0000E0002000EB0A010090059827
:103AE0004144401A0590E00306D45B462146179AEC
:103AF000059800F0B3F90544002706E001A85A46EE
:103B0000C05D179990476D1C7F1C4745F6DBE003AD
:103B10000CD55B462146179A059800F09FF905449D
:103B200004E030205A46179990476D1C0099481EB2
:103B300000900029F5DC08E0029802995A460078C6
:103B4000491C0291179990476D1CBAF10001AAF126
:103B5000010AF1DC65E1000009280100303132334F
:103B600034353637383961626364656600000000B9
:103B700030313233343536373839414243444546A3
:103B80000000000000F058F90544761C3078002849
:103B90007FF4ECAD19B02846BDE8F08F620700D481
:103BA000062709F1070222F0070CFCE80223E14690
:103BB00003F000485FEA080C02D00FF2702C0DE011
:103BC0005FEA045C02D50FF2682C07E05FEAC47C70
:103BD00002D00FF2602C01E0AFF2700C4FF0FF3812
:103BE00023F00043CDF850C065280CD006DC4528F2
:103BF00009D046281DD047283DD13DE0662818D081
:103C000067287ED138E00021112F01DB112000E070
:103C1000781CCDE9000106A90EA8FFF7DDFCDDE95F
:103C20000F010E9A03910021009207F1010A0491FD
:103C30004DE04FF000400097CDE9011006A90EA815
:103C4000FFF7CAFCDDE90F0203920E9B11990022D7
:103C5000DDF80CA00093049211B9791C00EB010A65
:103C6000B7EB0A0004D4C0F1FF3007F1010A049059
:103C7000AAEB0700019044E0012F00DA01270021A0
:103C8000112F01DD112000E03846CDE9000106A921
:103C90000EA8FFF7A1FCDDE90F010E9A03910021A8
:103CA00004910092BA4621070CD40399514500DAD9
:103CB0008A46BAF1010F05DD009AAAF10101515CB3
:103CC000302908D0B84202DA10F1040F06DA0121D7
:103CD000CDE9011015E0AAF10101E9E7002805DCB2
:103CE000049901440491AAEB000102E0411C5145F2
:103CF00000DD8A460499401A401C01904FF00040B4
:103D00000290200704D40198504501DBCDF80480CF
:103D100000208DF84F0002980DF14F07B0F1004FD1
:103D200025D02B200E9002984FF0020800280CDAC4
:103D3000404202902D200E9007E00A210298FCF7E5
:103D4000F1FA3031029007F8011DB8F10001A8F135
:103D50000108F2DC02980028EFD1791E0E98087055
:103D6000307800F0200040F0450007F8020D12A85E
:103D7000C01B00F107081498007800B1012000EB87
:103D80000A01019801EBE07105984144401A401E78
:103D90000590E00306D45B462146179A059800F08B
:103DA0005DF805441498007818B15A461799904761
:103DB0006D1CE00324D55B462146179A059800F058
:103DC0004DF805441CE00498002807DBDDE90301F9
:103DD000884203DD0098405C179901E01799302074
:103DE0005A469047049805F10105401C049001983B
:103DF000401E019004D12E205A46179990476D1C01
:103E0000BAF10001AAF1010ADDDC05E017F8010BA7
:103E10005A46179990476D1CB8F10001A8F10108A6
:103E2000F4DC5B462146179A0598ABE62D000000AE
:103E30002B000000200000002DE9F0410446002581
:103E40001E461746880404D405E039462020B047B2
:103E50006D1C641EF9D52846BDE8F0812DE9F041BE
:103E6000044600251E469046C80301D5302700E0D1
:103E70002027880404D505E041463846B0476D1C2C
:103E8000641EF9D52846BDE8F08170B505460024CA
:103E90004FF47A7603E0304600F004F8641CAC423C
:103EA000F9D370BD0B49096848434FF0E0214861E0
:103EB00000228A61086940F0010008610869C307AF
:103EC00001D0C003FAD5086920F0010008618A61B9
:103ED000704700001800002013B54FF0FF33012297
:103EE00069460248FEF75FFB00981CBD6001002098
:103EF0001FB5FDF7B9FAFFF71DF8FEF76BFCFEF7EB
:103F000053FCFEF703FDFEF74BFDFEF7C9FCFEF781
:103F100067FDFEF7F9FBFEF71FFCFEF7ABFDFCF7B4
:103F20002FFD45A0FFF728FB454EB07810B1FEF7F6
:103F300059FFFAE7FCF7C6FB0746FCF7D3FB8046C0
:103F400002A8FCF7B7FC002871D1FEF767FD012439
:103F5000002108233BA208460094FEF7DEFE082558
:103F6000CDE9005404233A4600214620FEF79EFE88
:103F7000082337A2194600200094FEF7CEFECDE9B3
:103F800000540423424608214620FEF78FFE0823F2
:103F900032A2102100200094FEF7BFFECDE90054AC
:103FA0009DF80A20022310211E20FEF77FFE082321
:103FB0002E2210212D200094FEF706FECDE900549C
:103FC0009DF80B20012310213520FEF76FFE0823FA
:103FD000432210213D200094FEF7F6FD082321A284
:103FE000182100200094FEF798FECDE900549DF8BA
:103FF0000820022318211E20FEF758FE08232E2237
:1040000018212D200094FEF7DFFDCDE900549DF826
:104010000920012318213520FEF748FE0823252218
:1040200018213D200094FEF7CFFDFEF799FD4FF4D7
:104030007A70FFF72AFF78E7676F0D0A000000002B
:104040000000002041444331284C4452293A2000CA
:1040500041444332284D5132293A200054656D7055
:104060003A00000048756D3A0000000001020203AA
:104070000405060708090A0B0C0D0E0F10100102AB
:1040800002030405060708090A0B0C0D0E0F101099
:1040900000000000000000000102030406070809F8
:1040A0000000000001020304000000000000000006
:1040B000002F000000000700070000147F147F1489
:1040C00000242A7F2A12006264081323003649550F
:1040D000225000000503000000001C2241000000E7
:1040E00041221C000014083E08140008083E08087D
:1040F000000000A0600000080808080800006060D8
:104100000000002010080402003E5149453E000016
:10411000427F4000004261514946002141454B31F8
:10412000001814127F10002745454539003C4A49C4
:104130004930000171090503003649494936000636
:104140004949291E0000363600000000563600009E
:104150000008142241000014141414140000412219
:10416000140800020151090600324959513E007CF1
:104170001211127C007F49494936003E41414122DB
:10418000007F4141221C007F49494941007F0909C4
:104190000901003E4149497A007F0808087F000074
:1041A000417F4100002040413F01007F081422412F
:1041B000007F40404040007F020C027F007F0408E7
:1041C000107F003E4141413E007F09090906003E43
:1041D0004151215E007F091929460046494949316C
:1041E0000001017F0101003F4040403F001F20408F
:1041F000201F003F4038403F00631408146300074D
:104200000870080700615149454300007F414100A3
:1042100000552A552A55000041417F000004020143
:104220000204004040404040000001020400002021
:1042300054545478007F484444380038444444205F
:1042400000384444487F00385454541800087E090C
:1042500001020018A4A4A47C007F080404780000D4
:10426000447D4000004080847D00007F1028440091
:104270000000417F4000007C04180478007C0804A2
:10428000047800384444443800FC242424180018DE
:10429000242418FC007C08040408004854545420CA
:1042A00000043F444020003C4040207C001C204053
:1042B000201C003C4030403C004428102844001C96
:1042C000A0A0A07C004464544C441414141414148E
:1042D0000000000000000000000000000000FC00E2
:1042E0000000000002000000000C020C02000000B0
:1042F0000000000090D0BCD0BC9000030003000080
:104300001824FE448C000302070201001824D8B0D0
:104310004C80000300010201C038E438E0000102D3
:104320000201020208060000000000000000000078
:10433000000000F80402000000010204000204F87A
:1043400000000004020100009060F860900000008E
:10435000010000002020FC202000000001000000DF
:1043600000000000000008060000000020202020BF
:10437000200000000000000000000000000000021B
:10438000000000000080601C020004030000000028
:10439000F8040404F8000102020201000008FC0015
:1043A00000000002030200001884442418000302E5
:1043B0000202020008042424D800010202020100C3
:1043C00040B088FC80000000000302003C2424244C
:1043D000C400010202020100F824242CC0000102E2
:1043E000020201000C04E41C0400000003000000B1
:1043F000D8242424D8000102020201003844444495
:10440000F80000030202010000001000000000009C
:104410000200000000002000000000000600000074
:10442000002050880402000000000102909090904B
:1044300090000000000000000002048850200002EC
:10444000010000001804C42418000000020000004D
:10445000F804E494F80001020202020000E09CF07B
:10446000800002030000030204FC2424D80002039D
:1044700002020100F80404040C000102020201001F
:1044800004FC0404F80002030202010004FC24748A
:104490000C0002030202030004FC24740C0002035B
:1044A00002000000F0080444CC40000102020100B8
:1044B00004FC2020FC040203000003020404FC04AA
:1044C0000400020203020200000404FC04040604C7
:1044D0000403000004FC24D00C04020302000302C5
:1044E00004FC04000000020302020203FC3CC03C86
:1044F000FC0003000300030004FC30C4FC040203BE
:1045000002000300F8040404F800010202020100A2
:1045100004FC24241800020302000000F884840430
:10452000F80001020207050004FC2464980002035D
:1045300002000302182424448C000302020201003A
:104540000C04FC040C0000020302000004FC000048
:10455000FC04000102020100047C80E01C04000055
:10456000030000001CE03CE01C000003000300000E
:10457000049C609C0400020300030200041CE01C75
:1045800004000002030200000C84641C0400020307
:10459000020203000000FE02020000000704040003
:1045A000000E30C00000000000010200000202FE08
:1045B00000000004040700000004020400000000E2
:1045C00000000000000000000000080808080808BB
:1045D0000000020000000000000000000040A0A059
:1045E000C00000010202030204FC2020C0000003FE
:1045F0000202010000C0202060000001020202004F
:1046000000C02024FC0000010202030200C0A0A0A0
:10461000C0000001020202000020F824240400026D
:10462000030202000040A0A0602000070A0A0A045A
:1046300004FC2020C0000203020003020020E4006A
:104640000000000203020000000020E4000008084F
:104650000807000004FC80E020200203020003029F
:104660000404FC000000020203020200E020E0203B
:10467000C00003000300030020E02020C00002036C
:104680000200030200C02020C0000001020201005D
:1046900020E02020C000080F0A02010000C02020F6
:1046A000E0000001020A0F0820E040202000020381
:1046B000020000000060A0A020000002020203002F
:1046C0000020F820000000000102020020E000208D
:1046D000E00000010202030220E0208060200000D0
:1046E000030100006080E080600000030003000020
:1046F00020608060200002030003020020E0208090
:1047000060200808070100000020A06020000002CF
:1047100003020200000020DE020000000007040087
:10472000000000FF00000000000F00000002DE207B
:10473000000000040700000002010204040200005F
:104740000000000000000000000000000000000069
:1047500000000000000000F800000000000000332E
:104760003000000000100C06100C060000000000D5
:104770000000000040C07840C0784000043F0404BE
:104780003F040400007088FC08300000001820FF7F
:10479000211E0000F008F000E018000000211C03BA
:1047A0001E211E0000F00888700000001E21232436
:1047B0001927211010160E00000000000000000054
:1047C00000000000000000E01804020000000007E4
:1047D0001820400000020418E000000000402018EB
:1047E00007000000404080F0804040000202010FBE
:1047F00001020200000000F0000000000101011FA2
:1048000001010100000000000000000080B0700005
:104810000000000000000000000000000001010195
:104820000101010100000000000000000030300024
:1048300000000000000000008060180400601806FE
:104840000100000000E010080810E000000F102038
:1048500020100F00001010F8000000000020203F82
:10486000202000000070080808887000003028240C
:1048700022213000003008888848300000182020AD
:1048800020110E000000C02010F8000000070424D2
:10489000243F240000F80888880808000019212017
:1048A00020110E0000E0108888180000000F112071
:1048B00020110E0000380808C83808000000003F2A
:1048C000000000000070880808887000001C222189
:1048D00021221C0000E010080810E0000000312236
:1048E00022110F00000000C0C000000000000030D6
:1048F0003000000000000080000000000000806028
:1049000000000000000080402010080000010204A8
:10491000081020004040404040404000040404048F
:10492000040404000008102040800000002010084B
:1049300004020100007048080808F0000000003080
:1049400036010000C030C828E810E000071827240E
:1049500023140B000000C038E0000000203C2302BC
:104960000227382008F8888888700000203F20201F
:1049700020110E00C0300808080838000718202051
:104980002010080008F808080810E000203F202048
:1049900020100F0008F88888E8081000203F202029
:1049A0002320180008F88888E8081000203F20001D
:1049B00003000000C0300808083800000718202055
:1049C000221E020008F808000008F808203F210114
:1049D00001213F20000808F8080800000020203FBF
:1049E0002020000000000808F8080800C08080802F
:1049F0007F00000008F888C028180800203F200128
:104A00002638200008F8080000000000203F202081
:104A10002020300008F8F800F8F80800203F003F98
:104A2000003F200008F830C00008F808203F2000B0
:104A300007183F00E01008080810E0000F102020C1
:104A400020100F0008F808080808F000203F210196
:104A500001010000E01008080810E0000F182424ED
:104A600038504F0008F8888888887000203F200060
:104A7000030C302000708808080838000038202116
:104A800021221C00180808F8080818000000203F20
:104A90002000000008F808000008F808001F202087
:104AA00020201F000878880000C838080000073858
:104AB0000E010000F80800F80008F800033C0700A9
:104AC000073C0300081868808068180820302C0311
:104AD000032C30200838C800C83808000000203FE8
:104AE0002000000010080808C838080020382621D7
:104AF00020201800000000FE020202000000007FDB
:104B000040404000000C30C00000000000000001E8
:104B10000638C00000020202FE00000000404040D3
:104B20007F000000000004020202040000000000F8
:104B30000000000000000000000000008080808075
:104B4000808080800002020400000000000000005D
:104B500000000000000080808080000000192422F6
:104B600022223F2008F8008080000000003F112032
:104B700020110E000000008080800000000E112037
:104B800020201100000000808088F800000E112015
:104B900020103F200000808080800000001F222223
:104BA00022221300008080F0888888180020203F8F
:104BB000202000000000808080808000006B9494A2
:104BC0009493600008F8008080800000203F21005E
:104BD00000203F2000809898000000000020203F27
:104BE00020200000000000809898000000C0808015
:104BF000807F000008F8000080808000203F2402B1
:104C00002D302000000808F8000000000020203FA0
:104C1000202000008080808080808000203F200055
:104C20003F20003F8080008080800000203F2100E6
:104C300000203F200000808080800000001F202096
:104C400020201F00808000808000000080FFA120C5
:104C500020110E000000008080808000000E1120D6
:104C600020A0FF80808080008080800020203F2165
:104C70002000010000008080808080000033242418
:104C800024241900008080E0808000000000001FC4
:104C9000202000008080000000808000001F202075
:104CA00020103F20808080000080808000010E3036
:104CB0000806010080800080008080800F300C0397
:104CC0000C300F0000808000808080000020312E9A
:104CD0000E312000808080000080808080818E7076
:104CE0001806010000808080808080000021302C28
:104CF0002221300000000000807C02020000000041
:104D0000003F404000000000FF00000000000000E5
:104D1000FF0000000002027C800000000040403FD5
:104D2000000000000006010102020404000000006F
:104D30000000000000000000000000000000000073
:104D40000000000000000000000000000000000063
:104D500000000000000000000000000000F0F0F083
:104D6000000000000000000000017F0100000000C2
:104D700000000000001C1C1C0000000000008060FF
:104D8000301C8C60301C0C00000000000000000093
:104D90000000000000000000000000000000000013
:104DA000000000E00000000000E000000086E69F38
:104DB00086868686E69F860000011F0101010101AB
:104DC0001F010100000080C06020F820E0C000004A
:104DD000000003070C18FF70E18100000000070FBE
:104DE00010107F100F07000080602060800000001E
:104DF000E02000000F3020309F70DC371030C00002
:104E00000000100E03000718101807000000C02053
:104E100020E0C0000000000080E01F38E88703C4E5
:104E20003C040000070F1810100B070D10100800AD
:104E300000808C4C380000000000000000000000E2
:104E40000000000000000000000000000000000062
:104E50000000000000000000000080E030080400B6
:104E60000000000000FEFF01000000000000000044
:104E70000000030F1820400000040830E08000000C
:104E8000000000000000000001FFFE000000000024
:104E9000004020180F030000000000000000000088
:104EA0000000C00000000000004266663C18FF18C9
:104EB0003C666642000000000000030000000000A5
:104EC0000000000000008000000000000010101032
:104ED0001010FF1010101010000000000000030060
:104EE00000000000000000000000000000000000C2
:104EF00000000000000000000000000000808C4C5A
:104F00003800000000000000000000000000000069
:104F100000000000001010101010101010101000F1
:104F20000000000000000000000000000000000081
:104F30000000000000000000000000000000000071
:104F40000000000000001C1C1C000000000000000D
:104F50000000000000000000E0380C00000000002D
:104F600080701C03000000000060380E010000008B
:104F700000000000000080C060202060C0800000B1
:104F800000FEFF010000000001FFFE000001070E0F
:104F9000181010180E0701000000808080C0E0008B
:104FA000000000000000000000FFFF000000000003
:104FB00000001010101F1F10101000000080402073
:104FC00020202060C08000000003030080402038C3
:104FD0001F070000001C1A1918181818181F0000C5
:104FE0000080C020202060C080000000000303007B
:104FF0001010182FE780000000070F101010101875
:105000000F070000000000000000C0E0F0000000FA
:1050100000C0B088868180FFFF8080000000000013
:105020000010101F1F1010000000E0606060606042
:105030006060000000003F1008080818F0E0000061
:1050400000070B101010101C0F030000000080C0A0
:1050500040202020E0C0000000FCFF2110080808CC
:1050600018F0E0000001070C18101010080F0300E2
:105070000000C0E06060606060E06000000003006D
:105080000000E0180700000000000000001F1F00E3
:10509000000000000080C0602020202060C0800050
:1050A0000087EF2C1818303068CF830000070F08F6
:1050B00010101010180F07000000C0C02020202082
:1050C000C0800000001F3F604040402010FFFE00F5
:1050D00000000C1C101010080F030000000000005E
:1050E000000000000000000000000000000E0E0E96
:1050F0000000000000000000001C1C1C000000005C
:10510000000000000000000000000000000000009F
:10511000000C0C00000000000000000000583800E7
:10512000000000000000000000000080402010008F
:105130000000102844820100000000000000000070
:105140000000010204081000000000000000000040
:105150000000000000848484848484848484840027
:10516000000000000000000000000000000010200F
:1051700040800000000000000000000000000182EC
:105180004428100000001008040201000000000084
:1051900000C020201010101030E0C00000030300F9
:1051A00000F010080C070300000000001C1C1C008D
:1051B00000000000000000C0406020202040C0002F
:1051C00000FCFF01F00E03C1FE03807F0001070E0B
:1051D00008111110110904020000000080E0E00035
:1051E000000000000000807C4340477FF880000002
:1051F00010181F1000000000131F1C1020E0E020FA
:1052000020202060C080000000FFFF101010101848
:105210002FE78000101F1F1010101010180F07002C
:10522000000080C0402020202060E00000FCFF0142
:1052300000000000000001000001070E181010100F
:105240000804030020E0E02020202040C08000006F
:1052500000FFFF000000000001FFFE00101F1F10F4
:10526000101018080E07010020E0E0202020202068
:105270002060800000FFFF101010107C0000000074
:10528000101F1F10101010101018060020E0E02052
:10529000202020206060800000FFFF101010107C94
:1052A00000000100101F1F1000000000000000009F
:1052B000000080C06020202040E0000000FCFF01D2
:1052C00000004040C0C140400001070E18101010FF
:1052D0000F0F000020E0E0200000000020E0E020B0
:1052E00000FFFF101010101010FFFF00101F1F1004
:1052F00000000000101F1F100000202020E0E02010
:10530000202000000000000000FFFF00000000005F
:1053100000001010101F1F101010000000000000EF
:10532000202020E0E020202000000000000000FFFE
:10533000FF0000000060E0808080C07F3F00000030
:1053400020E0E020000020A06020200000FFFF30CF
:10535000187CE3C000000000101F1F1000000113A4
:105360001F1C181020E0E0200000000000000000DA
:1053700000FFFF000000000000000000101F1F10D1
:10538000101010101018060020E0E0E000000000EF
:10539000E0E0E02000FF013FFEC0E01E01FFFF0053
:1053A000101F1000031F0300101F1F1020E0E0C09B
:1053B000000000000020E02000FF0003071C78E050
:1053C0008000FF00101F100000000000030F1F00EE
:1053D000000080C060202060C080000000FEFF014F
:1053E0000000000000FFFE000001070E181010185A
:1053F0000C07010020E0E0202020202060C0800079
:1054000000FFFF2020202020301F0F00101F1F1042
:105410000000000000000000000080C0602020604C
:10542000C080000000FEFF010000000000FFFE0041
:105430000001070E1111133C7C67210020E0E020E1
:105440002020202060C0800000FFFF101030F0D02E
:10545000080F0700101F1F10000000030F1C101082
:105460000080C060202020204040E00000070F0C9A
:105470001818303060E08100001F0C081010101068
:10548000180F07008060202020E0E02020206080AE
:105490000100000000FFFF0000000001000000000C
:1054A000101F1F100000000020E0E020000000009E
:1054B0000020E02000FFFF00000000000000FF00CF
:1054C00000070F1810101010100807002060E0E00F
:1054D0002000000020E060200000077FF8800080AE
:1054E0007C03000000000000071F1C0700000000F4
:1054F00020E0E02000E0E0200020E0200007FFF8AE
:10550000E01FFFFCE01F00000000031F0300011F5D
:1055100003000000002060E0A0000020E060200008
:10552000000000038F7CF8C6010000000010181E68
:10553000130001171F1810002060E0E02000000099
:1055400020E06020000001073EF8E018070000009E
:1055500000000010101F1F101000000000806020CD
:10556000202020A0E0E0200000000000C0F03E0F5E
:105570000300000000101C1F171010101018060068
:105580000000000000FC040404040400000000000B
:1055900000FF00000000000000000000007F40400D
:1055A00040404000000010E000000000000000004B
:1055B00000000000031C60800000000000000000EC
:1055C000000000030C70800000000404040404FCCC
:1055D0000000000000000000000000FF00000000CC
:1055E000000040404040407F0000000000000010EC
:1055F000080C040C0810000000000000000000006F
:10560000000000000000000000000000000000009A
:10561000000000000000000000000000000000008A
:10562000000000000000000080808080808080807A
:105630008080808000000004040808000000000052
:10564000000000000000000000000000000000005A
:10565000000000000000000000000000000000004A
:1056600000000000000098D844642424FCF80000E6
:10567000000F1F18101010081F1F10180020E0F056
:1056800000000000000000000000FFFF18080404F4
:105690000CF8F00000001F0F18101010180F030076
:1056A00000000000000000000000000000E0F8180A
:1056B0000404043C3800000000030F0C101010100C
:1056C000080600000000000000000020E0F00000DC
:1056D00000E0F81C04040408FFFF000000030F189A
:1056E000101010081F0F080000000000000000004C
:1056F000000000000000E0F8484444444C7870008A
:105700000000030F0C181010100804000000000027
:1057100080C0602020E0C00000040404FFFF0404F7
:1057200004040000000010101F1F101010000000E3
:10573000000000000000000000000000000070F801
:105740008C04048CF874040C007076CF8D8D8D89D8
:10575000C87870000020E0F00000000000000000A9
:105760000000FFFF08040404FCF8000000101F1FE5
:10577000100000101F1F10000000000000606000FB
:10578000000000000000040404FCFC000000000015
:1057900000001010101F1F1010100000000000006B
:1057A000000000606000000000000000040404FC31
:1057B000FC0000000000C0C08080C07F3F000000EF
:1057C0000020E0F000000000000000000000FFFFEB
:1057D00080C0F41C0404000000101F1F1100031FF0
:1057E0001C1010000000202020E0F000000000004D
:1057F0000000000000FFFF0000000000000010108B
:10580000101F1F101010000000000000000000001A
:105810000000000004FCFC0804FCFC0804FCFC0084
:10582000101F1F10001F1F10001F1F10000000007E
:1058300000000000000000000004FCFC0808040454
:10584000FCF8000000101F1F100000101F1F1000A8
:1058500000000000000000000000000000E0F01860
:105860000C04040C18F0E00000030F0C10101010D2
:105870000C0F03000000000000000000000000000A
:105880000004FCFC080404040CF8F0000080FFFF96
:10589000889010101C0F03000000000000000000A2
:1058A0000000000000E0F81C04040408F8FC0000FC
:1058B00000030F1810109088FFFF80000000000008
:1058C0000000000000000000040404FCFC100804B8
:1058D000040C0C001010101F1F101010000000000E
:1058E0000000000000000000000000000000307810
:1058F000CCC48484840C1C0000001E1810101011ED
:10590000190F06000000000000C0000000000000A9
:1059100000040404FFFF0404040000000000000071
:105920000F1F1010100C000000000000000000000D
:10593000000000000004FCFE00000004FCFE00006B
:1059400000000F1F181010081F0F080000000000B3
:10595000000000000000000000040C3CFCC400003B
:10596000C43C0C0400000000010F1E0E01000000EA
:10597000000000000000000000000000043CFCC427
:1059800000E47CFC84807C040000071F0700000703
:105990001F070000000000000000000000000000E1
:1059A0000004041C7CE4C0341C0404000010101C1F
:1059B0001601131F1C18100000000000000000005A
:1059C0000000000000040C3CFCC400C43C040400C3
:1059D0000000C080C1370E01000000000000000080
:1059E000000000000000000000001C0404C4F47C5F
:1059F0001C0400000000101C1F17111010180E00CE
:105A000000000000000000F80C040000000000008E
:105A1000001028EF00000000000000000000003F20
:105A200060400000000000000000FF0000000000D7
:105A3000000000000000FF00000000000000000067
:105A40000000FF00000000000000040CF80000004F
:105A50000000000000000000EF281000000000001F
:105A6000000040603F000000000000000018060237
:105A70000204081020203008000000000000000090
:105A80000000000000000000000000000000000016
:105A9000B05A00080000002028000000B8350008B7
:105AA000D85A00082800002048080000C83500081F
:105AB00019320000D007D0070100000010000000DC
:105AC0000000000000127A0000000000000000004A
:085AD0000000000000000000CE
:04000005080000ED02
